:100000000C9457000C9469000C9469000C946900DE
:100010000C9469000C9469000C9469000C946900BC
:100020000C9469000C9469000C9469000C946900AC
:100030000C9469000C9469000C9469000C9469009C
:100040000C94B5000C9469000C9469000C94690040
:100050000C9469000C9469000C9469000C9469007C
:100060000C9469000C946900000000002300260035
:10007000290004040404040404040202020202022B
:10008000030303030303010204081020408001025C
:1000900004081020010204081020000000080002DB
:1000A000010000030407000000000000000011240C
:1000B0001FBECFEFD8E0DEBFCDBF21E0A0E0B1E0B2
:1000C00001C01D92A930B207E1F70E94FF000C9415
:1000D00066010C94000090E0FC01E656FF4F24916D
:1000E000FC01EA57FF4F3491FC01EE58FF4FE491B9
:1000F000EE23C1F1222339F02330E9F090F42130CE
:1001000001F1223011F1F0E0EE0FFF1FE859FF4F2F
:10011000A591B491EC91E32381E090E029F580E092
:1001200008952730A9F02830C9F0243061F7809174
:1001300080008F7D03C0809180008F778093800046
:10014000E2CF84B58F7784BDDECF84B58F7DFBCFC2
:100150008091B0008F778093B000D5CF8091B000B0
:100160008F7DF9CF80E090E008951F920F920FB637
:100170000F9211242F933F938F939F93AF93BF932D
:100180008091050190910601A0910701B0910801AD
:100190003091040123E0230F2D3758F50196A11D5E
:1001A000B11D209304018093050190930601A09353
:1001B0000701B09308018091000190910101A09185
:1001C0000201B09103010196A11DB11D80930001B0
:1001D00090930101A0930201B0930301BF91AF91ED
:1001E0009F918F913F912F910F900FBE0F901F9075
:1001F000189526E8230F0296A11DB11DD2CF789441
:1002000084B5826084BD84B5816084BD85B582601B
:1002100085BD85B5816085BD80916E0081608093CC
:100220006E00109281008091810082608093810035
:100230008091810081608093810080918000816045
:10024000809380008091B10084608093B1008091A0
:10025000B00081608093B00080917A0084608093C8
:100260007A0080917A00826080937A0080917A008F
:10027000816080937A0080917A00806880937A0010
:100280001092C1008FEF8AB914B885B900E010E070
:1002900088E00E946B00D82F8AE00E946B00C82F74
:1002A00089E00E946B00F82E8BE00E946B00CC0F5F
:1002B000CF0DCC0F880F880F880F8D0FC80FCBB9CB
:1002C0000115110529F30E940000E2CFF894FFCF39
:00000001FF
