:020000040000FA
:100000000C9457000C9469000C9469000C946900DE
:100010000C9469000C9469000C9469000C946900BC
:100020000C9469000C9469000C9469000C946900AC
:100030000C9469000C9469000C9469000C9469009C
:100040000C94B5000C9469000C9469000C94690040
:100050000C9469000C9469000C9469000C9469007C
:100060000C9469000C946900000000002300260035
:10007000290004040404040404040202020202022B
:10008000030303030303010204081020408001025C
:1000900004081020010204081020000000080002DB
:1000A000010000030407000000000000000011240C
:1000B0001FBECFEFD8E0DEBFCDBF21E0A0E0B1E0B2
:1000C00001C01D92AA30B207E1F70E94FF000C9414
:1000D000CD010C94000090E0FC01E656FF4F249106
:1000E000FC01EA57FF4F3491FC01EE58FF4FE491B9
:1000F000EE23C1F1222339F02330E9F090F42130CE
:1001000001F1223011F1F0E0EE0FFF1FE859FF4F2F
:10011000A591B491EC91E32381E090E029F580E092
:1001200008952730A9F02830C9F0243061F7809174
:1001300080008F7D03C0809180008F778093800046
:10014000E2CF84B58F7784BDDECF84B58F7DFBCFC2
:100150008091B0008F778093B000D5CF8091B000B0
:100160008F7DF9CF80E090E008951F920F920FB637
:100170000F9211242F933F938F939F93AF93BF932D
:100180008091060190910701A0910801B0910901A9
:100190003091050123E0230F2D3758F50196A11D5D
:1001A000B11D209305018093060190930701A09350
:1001B0000801B09309018091010190910201A09181
:1001C0000301B09104010196A11DB11D80930101AD
:1001D00090930201A0930301B0930401BF91AF91EA
:1001E0009F918F913F912F910F900FBE0F901F9075
:1001F000189526E8230F0296A11DB11DD2CF789441
:1002000084B5826084BD84B5816084BD85B582601B
:1002100085BD85B5816085BD80916E0081608093CC
:100220006E00109281008091810082608093810035
:100230008091810081608093810080918000816045
:10024000809380008091B10084608093B1008091A0
:10025000B00081608093B00080917A0084608093C8
:100260007A0080917A00826080937A0080917A008F
:10027000816080937A0080917A00806880937A0010
:100280001092C1008FEF8AB914B885B9C0E0D0E0F0
:1002900017E40FE46DE3F62E7EE4E72EEFE1DE2EA9
:1002A000F7E7CF2E8FE0B82E9BE7A92E2FE7922EEF
:1002B00030E7832E4FE5742E5BE5652E88E00E94C3
:1002C0006B00382E8AE00E946B00582E89E00E9455
:1002D0006B00482E8BE00E946B00EB2DE319880F1A
:1002E000880F880FE81B550C540C550CE519E031AC
:1002F00008F04AC0F0E0E158FE4F0C94C7018F01AE
:100300009B019D019F01A101A301A601A901AC01CF
:10031000AF01B201B501B801BB01BE01C1018EE759
:1003200080930001809100018BB9209709F4C6CF1A
:100330000E940000B7CF80E3F3CF8DE6F1CF89E7CD
:10034000EFCF83E3EDCF60920001ECCF709200011C
:10035000E9CF80920001E6CF90920001E3CFA09216
:100360000001E0CFC0920001DDCFD0920001DACFD2
:10037000E0920001D7CFF0920001D4CF00930001AA
:10038000D1CF10930001CECF10920001CBCFEE0F52
:0E039000FF1F0590F491E02D0994F894FFCF23
:107E0000112484B714BE81FFF0D085E080938100F7
:107E100082E08093C00088E18093C10086E0809377
:107E2000C20080E18093C4008EE0C9D0259A86E02C
:107E300020E33CEF91E0309385002093840096BBD3
:107E4000B09BFECF1D9AA8958150A9F7CC24DD24C4
:107E500088248394B5E0AB2EA1E19A2EF3E0BF2EE7
:107E6000A2D0813461F49FD0082FAFD0023811F036
:107E7000013811F484E001C083E08DD089C08234E0
:107E800011F484E103C0853419F485E0A6D080C0E4
:107E9000853579F488D0E82EFF2485D0082F10E0AE
:107EA000102F00270E291F29000F111F8ED06801E7
:107EB0006FC0863521F484E090D080E0DECF843638
:107EC00009F040C070D06FD0082F6DD080E0C81688
:107ED00080E7D80618F4F601B7BEE895C0E0D1E017
:107EE00062D089930C17E1F7F0E0CF16F0E7DF06D8
:107EF00018F0F601B7BEE89568D007B600FCFDCFD4
:107F0000A601A0E0B1E02C9130E011968C91119780
:107F100090E0982F8827822B932B1296FA010C0160
:107F200087BEE89511244E5F5F4FF1E0A038BF0790
:107F300051F7F601A7BEE89507B600FCFDCF97BE46
:107F4000E89526C08437B1F42ED02DD0F82E2BD052
:107F50003CD0F601EF2C8F010F5F1F4F84911BD097
:107F6000EA94F801C1F70894C11CD11CFA94CF0C13
:107F7000D11C0EC0853739F428D08EE10CD085E9AC
:107F80000AD08FE07ACF813511F488E018D01DD067
:107F900080E101D065CF982F8091C00085FFFCCF94
:107FA0009093C60008958091C00087FFFCCF809118
:107FB000C00084FD01C0A8958091C6000895E0E648
:107FC000F0E098E1908380830895EDDF803219F02E
:107FD00088E0F5DFFFCF84E1DECF1F93182FE3DFCA
:107FE0001150E9F7F2DF1F91089580E0E8DFEE27F6
:047FF000FF270994CA
:027FFE00040479
:00000001FF
