:100000000C9457000C9469000C9469000C946900DE
:100010000C9469000C9469000C9469000C946900BC
:100020000C9469000C9469000C9469000C946900AC
:100030000C9469000C9469000C9469000C9469009C
:100040000C94DA000C9469000C9469000C9469001B
:100050000C9469000C9469000C9469000C9469007C
:100060000C9469000C946900000000002300260035
:10007000290004040404040404040202020202022B
:10008000030303030303010204081020408001025C
:1000900004081020010204081020000000080002DB
:1000A000010000030407000000000000000011240C
:1000B0001FBECFEFD8E0DEBFCDBF21E0A0E0B1E0B2
:1000C00001C01D92AA30B207E1F70E9424010C94EE
:1000D000C7010C94000090E0FC01E656FF4F24910C
:1000E000FC01EA57FF4F3491FC01EE58FF4FE491B9
:1000F000EE23C1F1222339F02330E9F090F42130CE
:1001000001F1223011F1F0E0EE0FFF1FE859FF4F2F
:10011000A591B491EC91E32381E090E029F580E092
:1001200008952730A9F02830C9F0243061F7809174
:1001300080008F7D03C0809180008F778093800046
:10014000E2CF84B58F7784BDDECF84B58F7DFBCFC2
:100150008091B0008F778093B000D5CF8091B000B0
:100160008F7DF9CF80E090E008953FB7F8948091BB
:10017000050190910601A0910701B091080126B5F3
:10018000A89B05C02F3F19F00196A11DB11D3FBFCF
:10019000BA2FA92F982F8827BC01CD01620F711D9E
:1001A000811D911D42E0660F771F881F991F4A9598
:1001B000D1F708951F920F920FB60F9211242F932B
:1001C0003F938F939F93AF93BF9380910101909141
:1001D0000201A0910301B09104013091000123E0DC
:1001E000230F2D3758F50196A11DB11D2093000155
:1001F0008093010190930201A0930301B093040145
:100200008091050190910601A0910701B09108012C
:100210000196A11DB11D8093050190930601A09345
:100220000701B0930801BF91AF919F918F913F91CA
:100230002F910F900FBE0F901F90189526E8230F57
:100240000296A11DB11DD2CF789484B5826084BD81
:1002500084B5816084BD85B5826085BD85B58160CA
:1002600085BD80916E00816080936E001092810048
:100270008091810082608093810080918100816003
:1002800080938100809180008160809380008091C4
:10029000B10084608093B1008091B0008160809350
:1002A000B00080917A00846080937A0080917A0017
:1002B000826080937A0080917A00816080937A00D6
:1002C00080917A00806880937A001092C1008FEF4D
:1002D0008AB998EF94B985B9C0E0D0E088E00E946F
:1002E0006B00892B51F488E00E946B00892BD9F3B5
:1002F000809109018F5F8093090189E00E946B0062
:10030000892B51F489E00E946B00892BD9F38091ED
:1003100009018150809309018AE00E946B00892BBA
:1003200011F4109209018091090181508E3F10F063
:1003300010920901809109018BB90E94B5004B010F
:100340005C0184E6C82ED12CE12CF12C0E94B50072
:10035000681979098A099B09683E734081059105EE
:10036000A8F321E0C21AD108E108F10888EE880E4E
:1003700083E0981EA11CB11CC114D104E104F10456
:1003800029F7209709F4AACF0E940000A7CFF8947C
:02039000FFCF9D
:00000001FF
