:100000000C945C000C9479000C9479000C947900A9
:100010000C9479000C9479000C9479000C9479007C
:100020000C9479000C9479000C9479000C9479006C
:100030000C9479000C9479000C9479000C9479005C
:100040000C94F8000C9479000C9479000C947900CD
:100050000C9479000C9479000C9479000C9479003C
:100060000C9479000C947900000000080002010053
:100070000003040700000000000000000000000072
:10008000250028002B0000000000240027002A0083
:10009000040404040404040402020202020203032E
:1000A0000303030301020408102040800102040836
:1000B000102001020408102011241FBECFEFD8E049
:1000C000DEBFCDBF11E0A0E0B1E0E8E7F4E002C0A0
:1000D00005900D92A030B107D9F721E0A0E0B1E082
:1000E00001C01D92A930B207E1F70E9442010C94B1
:1000F0003A020C94000090E0FC01EC55FF4F249173
:1001000080579F4FFC018491882399F090E0880FDD
:10011000991FFC01EA57FF4FA591B491FC01E458E7
:10012000FF4F859194918FB7F894EC91E22BEC936B
:100130008FBF089590E0FC01E859FF4F2491FC0126
:10014000EC55FF4F3491FC01E057FF4FE491EE2353
:10015000C9F0222339F0233001F1A8F4213019F13C
:10016000223029F1F0E0EE0FFF1FE458FF4FA59178
:10017000B4918FB7F894EC91611126C030953E236D
:100180003C938FBF08952730A9F02830C9F0243060
:1001900049F7809180008F7D03C0809180008F7728
:1001A00080938000DFCF84B58F7784BDDBCF84B5AB
:1001B0008F7DFBCF8091B0008F778093B000D2CF3E
:1001C0008091B0008F7DF9CF3E2BDACFCF93DF93B4
:1001D000D62FC42F682F88E00E949A006D2F85E0EB
:1001E0000E949A006C2F83E0DF91CF910C949A00CB
:1001F0001F920F920FB60F9211242F933F938F935C
:100200009F93AF93BF938091050190910601A091B8
:100210000701B09108013091040123E0230F2D372D
:1002200058F50196A11DB11D20930401809305018D
:1002300090930601A0930701B093080180910001FB
:1002400090910101A0910201B09103010196A11DBD
:10025000B11D8093000190930101A0930201B0931E
:100260000301BF91AF919F918F913F912F910F907B
:100270000FBE0F901F90189526E8230F0296A11D20
:10028000B11DD2CF789484B5826084BD84B581607D
:1002900084BD85B5826085BD85B5816085BD809151
:1002A0006E00816080936E001092810080918100C9
:1002B00082608093810080918100816080938100C1
:1002C000809180008160809380008091B100846083
:1002D0008093B1008091B00081608093B0008091E4
:1002E0007A00846080937A0080917A0082608093A3
:1002F0007A0080917A00816080937A0080917A0000
:10030000806880937A001092C10083E00E947B0095
:1003100085E00E947B0088E00E947B00C0E4CC2442
:10032000CA9433E0D32EE12CF12C00E010E0C0930E
:100330007C0080917A00806480937A0080917A00BA
:1003400086FDFCCF8091780060917900762F682F30
:10035000072E000C880B990B23E0660F771F881F70
:10036000991F2A95D1F7A70196010E94F301F9017F
:1003700028303105A0F4E154FE4F0C943402C7013B
:10038000D601D901DE01E101E801EB01F00150E005
:1003900040E070E060E090E080E00E94E60001153F
:1003A000110509F4C4CF0E940000C1CF41E050E024
:1003B000F0CF50E040E061E070E0EDCF41E050E090
:1003C000FACF50E040E070E060E081E090E0E5CFFF
:1003D00041E050E0F8CF50E040E061E070E0F5CF60
:1003E00041E050E0FACF052E97FB1EF400940E94E6
:1003F0000A0257FD07D00E94120207FC03D04EF4F8
:100400000C940A0250954095309521953F4F4F4FDF
:100410005F4F089590958095709561957F4F8F4FB0
:100420009F4F0895A1E21A2EAA1BBB1BFD010DC010
:10043000AA1FBB1FEE1FFF1FA217B307E407F50794
:1004400020F0A21BB30BE40BF50B661F771F881F70
:10045000991F1A9469F760957095809590959B0106
:10046000AC01BD01CF010895EE0FFF1F0590F4917F
:08047000E02D0994F894FFCF80
:00000001FF
